{
    "_format": "hh-sol-artifact-1",
    "contractName": "Ballot",
    "sourceName": "contracts/Ballot.sol",
    "abi": [
        {
            "inputs": [],
            "stateMutability": "nonpayable",
            "type": "constructor"
        },
        {
            "anonymous": false,
            "inputs": [
                {
                    "indexed": true,
                    "internalType": "address",
                    "name": "previousOwner",
                    "type": "address"
                },
                {
                    "indexed": true,
                    "internalType": "address",
                    "name": "newOwner",
                    "type": "address"
                }
            ],
            "name": "OwnershipTransferred",
            "type": "event"
        },
        {
            "anonymous": false,
            "inputs": [
                {
                    "indexed": false,
                    "internalType": "string",
                    "name": "_candidate",
                    "type": "string"
                },
                {
                    "indexed": false,
                    "internalType": "string",
                    "name": "_post",
                    "type": "string"
                },
                {
                    "indexed": false,
                    "internalType": "address",
                    "name": "_voter",
                    "type": "address"
                }
            ],
            "name": "Voted",
            "type": "event"
        },
        {
            "anonymous": false,
            "inputs": [
                {
                    "indexed": false,
                    "internalType": "uint256",
                    "name": "_count",
                    "type": "uint256"
                },
                {
                    "indexed": false,
                    "internalType": "string",
                    "name": "_name",
                    "type": "string"
                },
                {
                    "indexed": false,
                    "internalType": "string",
                    "name": "_post",
                    "type": "string"
                },
                {
                    "indexed": false,
                    "internalType": "string",
                    "name": "_imageUrl",
                    "type": "string"
                },
                {
                    "indexed": false,
                    "internalType": "string",
                    "name": "_details",
                    "type": "string"
                }
            ],
            "name": "createdCandidate",
            "type": "event"
        },
        {
            "anonymous": false,
            "inputs": [
                {
                    "indexed": false,
                    "internalType": "uint256",
                    "name": "_timeStarted",
                    "type": "uint256"
                },
                {
                    "indexed": false,
                    "internalType": "uint256",
                    "name": "_deadline",
                    "type": "uint256"
                },
                {
                    "indexed": false,
                    "internalType": "uint256",
                    "name": "_duration",
                    "type": "uint256"
                },
                {
                    "indexed": false,
                    "internalType": "string",
                    "name": "_message",
                    "type": "string"
                }
            ],
            "name": "electionStarted",
            "type": "event"
        },
        {
            "inputs": [],
            "name": "_candidateId",
            "outputs": [
                {
                    "internalType": "uint256",
                    "name": "_value",
                    "type": "uint256"
                }
            ],
            "stateMutability": "view",
            "type": "function"
        },
        {
            "inputs": [],
            "name": "_voterId",
            "outputs": [
                {
                    "internalType": "uint256",
                    "name": "_value",
                    "type": "uint256"
                }
            ],
            "stateMutability": "view",
            "type": "function"
        },
        {
            "inputs": [
                {
                    "internalType": "string",
                    "name": "_post",
                    "type": "string"
                },
                {
                    "internalType": "string",
                    "name": "_name",
                    "type": "string"
                },
                {
                    "internalType": "string",
                    "name": "_imageUrl",
                    "type": "string"
                },
                {
                    "internalType": "string",
                    "name": "_details",
                    "type": "string"
                }
            ],
            "name": "addCandidate",
            "outputs": [],
            "stateMutability": "nonpayable",
            "type": "function"
        },
        {
            "inputs": [
                {
                    "internalType": "uint256",
                    "name": "",
                    "type": "uint256"
                }
            ],
            "name": "candidates",
            "outputs": [
                {
                    "internalType": "uint256",
                    "name": "id",
                    "type": "uint256"
                },
                {
                    "internalType": "string",
                    "name": "name",
                    "type": "string"
                },
                {
                    "internalType": "string",
                    "name": "post",
                    "type": "string"
                },
                {
                    "internalType": "string",
                    "name": "imageUrl",
                    "type": "string"
                },
                {
                    "internalType": "uint256",
                    "name": "voteCount",
                    "type": "uint256"
                },
                {
                    "internalType": "string",
                    "name": "details",
                    "type": "string"
                }
            ],
            "stateMutability": "view",
            "type": "function"
        },
        {
            "inputs": [],
            "name": "deadline",
            "outputs": [
                {
                    "internalType": "uint256",
                    "name": "",
                    "type": "uint256"
                }
            ],
            "stateMutability": "view",
            "type": "function"
        },
        {
            "inputs": [],
            "name": "isElectionStarted",
            "outputs": [
                {
                    "internalType": "bool",
                    "name": "",
                    "type": "bool"
                }
            ],
            "stateMutability": "view",
            "type": "function"
        },
        {
            "inputs": [
                {
                    "internalType": "string",
                    "name": "_post",
                    "type": "string"
                }
            ],
            "name": "numberofVotersPerPost",
            "outputs": [
                {
                    "internalType": "uint256",
                    "name": "",
                    "type": "uint256"
                }
            ],
            "stateMutability": "view",
            "type": "function"
        },
        {
            "inputs": [],
            "name": "owner",
            "outputs": [
                {
                    "internalType": "address",
                    "name": "",
                    "type": "address"
                }
            ],
            "stateMutability": "view",
            "type": "function"
        },
        {
            "inputs": [],
            "name": "renounceOwnership",
            "outputs": [],
            "stateMutability": "nonpayable",
            "type": "function"
        },
        {
            "inputs": [],
            "name": "retrievecandiadates",
            "outputs": [
                {
                    "components": [
                        {
                            "internalType": "uint256",
                            "name": "id",
                            "type": "uint256"
                        },
                        {
                            "internalType": "string",
                            "name": "name",
                            "type": "string"
                        },
                        {
                            "internalType": "string",
                            "name": "post",
                            "type": "string"
                        },
                        {
                            "internalType": "string",
                            "name": "imageUrl",
                            "type": "string"
                        },
                        {
                            "internalType": "uint256",
                            "name": "voteCount",
                            "type": "uint256"
                        },
                        {
                            "internalType": "string",
                            "name": "details",
                            "type": "string"
                        }
                    ],
                    "internalType": "struct Ballot.Candidate[]",
                    "name": "",
                    "type": "tuple[]"
                }
            ],
            "stateMutability": "view",
            "type": "function"
        },
        {
            "inputs": [
                {
                    "internalType": "uint256",
                    "name": "_duration",
                    "type": "uint256"
                }
            ],
            "name": "startElection",
            "outputs": [],
            "stateMutability": "nonpayable",
            "type": "function"
        },
        {
            "inputs": [],
            "name": "startTime",
            "outputs": [
                {
                    "internalType": "uint256",
                    "name": "",
                    "type": "uint256"
                }
            ],
            "stateMutability": "view",
            "type": "function"
        },
        {
            "inputs": [],
            "name": "timing",
            "outputs": [
                {
                    "internalType": "bool",
                    "name": "",
                    "type": "bool"
                }
            ],
            "stateMutability": "view",
            "type": "function"
        },
        {
            "inputs": [
                {
                    "internalType": "address",
                    "name": "newOwner",
                    "type": "address"
                }
            ],
            "name": "transferOwnership",
            "outputs": [],
            "stateMutability": "nonpayable",
            "type": "function"
        },
        {
            "inputs": [
                {
                    "internalType": "uint256",
                    "name": "_id",
                    "type": "uint256"
                }
            ],
            "name": "vote",
            "outputs": [],
            "stateMutability": "nonpayable",
            "type": "function"
        },
        {
            "inputs": [
                {
                    "internalType": "string",
                    "name": "_post",
                    "type": "string"
                }
            ],
            "name": "votersByPost",
            "outputs": [
                {
                    "internalType": "address[]",
                    "name": "",
                    "type": "address[]"
                }
            ],
            "stateMutability": "view",
            "type": "function"
        },
        {
            "inputs": [
                {
                    "internalType": "string",
                    "name": "",
                    "type": "string"
                },
                {
                    "internalType": "uint256",
                    "name": "",
                    "type": "uint256"
                }
            ],
            "name": "votersPerPost",
            "outputs": [
                {
                    "internalType": "address",
                    "name": "",
                    "type": "address"
                }
            ],
            "stateMutability": "view",
            "type": "function"
        }
    ],
    "bytecode": "0x60806040526000600360006101000a81548160ff0219169083151502179055503480156200002c57600080fd5b506200004d620000416200005360201b60201c565b6200005b60201b60201c565b6200011f565b600033905090565b60008060009054906101000a900473ffffffffffffffffffffffffffffffffffffffff169050816000806101000a81548173ffffffffffffffffffffffffffffffffffffffff021916908373ffffffffffffffffffffffffffffffffffffffff1602179055508173ffffffffffffffffffffffffffffffffffffffff168173ffffffffffffffffffffffffffffffffffffffff167f8be0079c531659141344cd1fd0a4f28419497f9722a3daafe3b4186f6b6457e060405160405180910390a35050565b6128a0806200012f6000396000f3fe608060405234801561001057600080fd5b506004361061010b5760003560e01c80636d32dc4b116100a25780638da5cb5b116100715780638da5cb5b146102ab578063a7388967146102c9578063b9be3152146102e7578063f1c9defb14610305578063f2fde38b146103235761010b565b80636d32dc4b14610237578063715018a61461025357806378c08d341461025d57806378e979251461028d5761010b565b806334af243b116100de57806334af243b1461019d5780633f5c9844146101cd57806342b03cc9146101fd5780634fba5adf146102195761010b565b80630121b93f1461011057806329dcb0cf1461012c578063320ad2961461014a5780633477ee2e14610168575b600080fd5b61012a600480360381019061012591906115c7565b61033f565b005b610134610639565b6040516101419190611603565b60405180910390f35b61015261063f565b60405161015f9190611639565b60405180910390f35b610182600480360381019061017d91906115c7565b610652565b604051610194969594939291906116e4565b60405180910390f35b6101b760048036038101906101b29190611896565b6108ae565b6040516101c491906119cf565b60405180910390f35b6101e760048036038101906101e291906119f1565b61095a565b6040516101f49190611a5c565b60405180910390f35b61021760048036038101906102129190611ad7565b6109be565b005b610221610bf0565b60405161022e9190611639565b60405180910390f35b610251600480360381019061024c91906115c7565b610bfc565b005b61025b610ccb565b005b61027760048036038101906102729190611896565b610cdf565b6040516102849190611603565b60405180910390f35b610295610d0a565b6040516102a29190611603565b60405180910390f35b6102b3610d10565b6040516102c09190611a5c565b60405180910390f35b6102d1610d39565b6040516102de9190611603565b60405180910390f35b6102ef610d45565b6040516102fc9190611603565b60405180910390f35b61030d610d51565b60405161031a9190611d79565b60405180910390f35b61033d60048036038101906103389190611dc7565b6110b7565b005b806103498161113a565b610388576040517f08c379a000000000000000000000000000000000000000000000000000000000815260040161037f90611e40565b60405180910390fd5b600360009054906101000a900460ff166103d7576040517f08c379a00000000000000000000000000000000000000000000000000000000081526004016103ce90611eac565b60405180910390fd5b600454421061041b576040517f08c379a000000000000000000000000000000000000000000000000000000000815260040161041290611f18565b60405180910390fd5b6000600660008481526020019081526020016000209050600781600201604051610445919061203b565b908152602001604051809103902060003373ffffffffffffffffffffffffffffffffffffffff1673ffffffffffffffffffffffffffffffffffffffff16815260200190815260200160002060009054906101000a900460ff16156104de576040517f08c379a00000000000000000000000000000000000000000000000000000000081526004016104d5906120c4565b60405180910390fd5b60016007826002016040516104f3919061203b565b908152602001604051809103902060003373ffffffffffffffffffffffffffffffffffffffff1673ffffffffffffffffffffffffffffffffffffffff16815260200190815260200160002060006101000a81548160ff021916908315150217905550600181600401600082825461056a9190612113565b92505081905550600881600201604051610584919061203b565b9081526020016040518091039020339080600181540180825580915050600190039060005260206000200160009091909190916101000a81548173ffffffffffffffffffffffffffffffffffffffff021916908373ffffffffffffffffffffffffffffffffffffffff1602179055507f76e160e9aab7ceb8a7dab11824f7ed9f11cb759e3715865971070ca67c77b52681600101826002013360405161062c939291906121cb565b60405180910390a1505050565b60045481565b600360009054906101000a900460ff1681565b600660205280600052604060002060009150905080600001549080600101805461067b90611f67565b80601f01602080910402602001604051908101604052809291908181526020018280546106a790611f67565b80156106f45780601f106106c9576101008083540402835291602001916106f4565b820191906000526020600020905b8154815290600101906020018083116106d757829003601f168201915b50505050509080600201805461070990611f67565b80601f016020809104026020016040519081016040528092919081815260200182805461073590611f67565b80156107825780601f1061075757610100808354040283529160200191610782565b820191906000526020600020905b81548152906001019060200180831161076557829003601f168201915b50505050509080600301805461079790611f67565b80601f01602080910402602001604051908101604052809291908181526020018280546107c390611f67565b80156108105780601f106107e557610100808354040283529160200191610810565b820191906000526020600020905b8154815290600101906020018083116107f357829003601f168201915b50505050509080600401549080600501805461082b90611f67565b80601f016020809104026020016040519081016040528092919081815260200182805461085790611f67565b80156108a45780601f10610879576101008083540402835291602001916108a4565b820191906000526020600020905b81548152906001019060200180831161088757829003601f168201915b5050505050905086565b60606008826040516108c09190612241565b908152602001604051809103902080548060200260200160405190810160405280929190818152602001828054801561094e57602002820191906000526020600020905b8160009054906101000a900473ffffffffffffffffffffffffffffffffffffffff1673ffffffffffffffffffffffffffffffffffffffff1681526020019060010190808311610904575b50505050509050919050565b600882805160208101820180518482526020830160208501208183528095505050505050818154811061098c57600080fd5b906000526020600020016000915091509054906101000a900473ffffffffffffffffffffffffffffffffffffffff1681565b6109c66113d9565b6109d06001611457565b60006109dc600161146d565b90506040518060c0016040528082815260200188888080601f016020809104026020016040519081016040528093929190818152602001838380828437600081840152601f19601f8201169050808301925050505050505081526020018a8a8080601f016020809104026020016040519081016040528093929190818152602001838380828437600081840152601f19601f82011690508083019250505050505050815260200186868080601f016020809104026020016040519081016040528093929190818152602001838380828437600081840152601f19601f8201169050808301925050505050505081526020016000815260200184848080601f016020809104026020016040519081016040528093929190818152602001838380828437600081840152601f19601f8201169050808301925050505050505081525060066000838152602001908152602001600020600082015181600001556020820151816001019081610b4e91906123ef565b506040820151816002019081610b6491906123ef565b506060820151816003019081610b7a91906123ef565b506080820151816004015560a0820151816005019081610b9a91906123ef565b509050507f5fbd2e4540b01895a26742870b268e56d081a07b8b1dcc947848502d2b341b108188888c8c8a8a8a8a604051610bdd999897969594939291906124ee565b60405180910390a1505050505050505050565b60004260045411905090565b610c046113d9565b60008111610c47576040517f08c379a0000000000000000000000000000000000000000000000000000000008152600401610c3e906125d7565b60405180910390fd5b6001600360006101000a81548160ff02191690831515021790555042600581905550603c81610c7691906125f7565b600554610c839190612113565b6004819055507ffa7f18743e2dfa49ab64a76f4dbf8ebc21331b2648b6738820e094ab5580cdb860055460045483604051610cc0939291906126ab565b60405180910390a150565b610cd36113d9565b610cdd600061147b565b565b6000600882604051610cf19190612241565b9081526020016040518091039020805490509050919050565b60055481565b60008060009054906101000a900473ffffffffffffffffffffffffffffffffffffffff16905090565b60018060000154905081565b60028060000154905081565b60606000610d5f600161146d565b90506000808267ffffffffffffffff811115610d7e57610d7d61176b565b5b604051908082528060200260200182016040528015610db757816020015b610da4611547565b815260200190600190039081610d9c5790505b50905060005b838110156110ad57600060066000600184610dd89190612113565b81526020019081526020016000206000015490506000600660008381526020019081526020016000209050806040518060c001604052908160008201548152602001600182018054610e2990611f67565b80601f0160208091040260200160405190810160405280929190818152602001828054610e5590611f67565b8015610ea25780601f10610e7757610100808354040283529160200191610ea2565b820191906000526020600020905b815481529060010190602001808311610e8557829003601f168201915b50505050508152602001600282018054610ebb90611f67565b80601f0160208091040260200160405190810160405280929190818152602001828054610ee790611f67565b8015610f345780601f10610f0957610100808354040283529160200191610f34565b820191906000526020600020905b815481529060010190602001808311610f1757829003601f168201915b50505050508152602001600382018054610f4d90611f67565b80601f0160208091040260200160405190810160405280929190818152602001828054610f7990611f67565b8015610fc65780601f10610f9b57610100808354040283529160200191610fc6565b820191906000526020600020905b815481529060010190602001808311610fa957829003601f168201915b5050505050815260200160048201548152602001600582018054610fe990611f67565b80601f016020809104026020016040519081016040528092919081815260200182805461101590611f67565b80156110625780601f1061103757610100808354040283529160200191611062565b820191906000526020600020905b81548152906001019060200180831161104557829003601f168201915b50505050508152505084868151811061107e5761107d6126f5565b5b60200260200101819052506001856110969190612113565b9450505080806110a590612724565b915050610dbd565b5080935050505090565b6110bf6113d9565b600073ffffffffffffffffffffffffffffffffffffffff168173ffffffffffffffffffffffffffffffffffffffff160361112e576040517f08c379a0000000000000000000000000000000000000000000000000000000008152600401611125906127de565b60405180910390fd5b6111378161147b565b50565b600080600660008481526020019081526020016000206040518060c00160405290816000820154815260200160018201805461117590611f67565b80601f01602080910402602001604051908101604052809291908181526020018280546111a190611f67565b80156111ee5780601f106111c3576101008083540402835291602001916111ee565b820191906000526020600020905b8154815290600101906020018083116111d157829003601f168201915b5050505050815260200160028201805461120790611f67565b80601f016020809104026020016040519081016040528092919081815260200182805461123390611f67565b80156112805780601f1061125557610100808354040283529160200191611280565b820191906000526020600020905b81548152906001019060200180831161126357829003601f168201915b5050505050815260200160038201805461129990611f67565b80601f01602080910402602001604051908101604052809291908181526020018280546112c590611f67565b80156113125780601f106112e757610100808354040283529160200191611312565b820191906000526020600020905b8154815290600101906020018083116112f557829003601f168201915b505050505081526020016004820154815260200160058201805461133590611f67565b80601f016020809104026020016040519081016040528092919081815260200182805461136190611f67565b80156113ae5780601f10611383576101008083540402835291602001916113ae565b820191906000526020600020905b81548152906001019060200180831161139157829003601f168201915b5050505050815250509050828160000151036113ce5760019150506113d4565b60009150505b919050565b6113e161153f565b73ffffffffffffffffffffffffffffffffffffffff166113ff610d10565b73ffffffffffffffffffffffffffffffffffffffff1614611455576040517f08c379a000000000000000000000000000000000000000000000000000000000815260040161144c9061284a565b60405180910390fd5b565b6001816000016000828254019250508190555050565b600081600001549050919050565b60008060009054906101000a900473ffffffffffffffffffffffffffffffffffffffff169050816000806101000a81548173ffffffffffffffffffffffffffffffffffffffff021916908373ffffffffffffffffffffffffffffffffffffffff1602179055508173ffffffffffffffffffffffffffffffffffffffff168173ffffffffffffffffffffffffffffffffffffffff167f8be0079c531659141344cd1fd0a4f28419497f9722a3daafe3b4186f6b6457e060405160405180910390a35050565b600033905090565b6040518060c001604052806000815260200160608152602001606081526020016060815260200160008152602001606081525090565b6000604051905090565b600080fd5b600080fd5b6000819050919050565b6115a481611591565b81146115af57600080fd5b50565b6000813590506115c18161159b565b92915050565b6000602082840312156115dd576115dc611587565b5b60006115eb848285016115b2565b91505092915050565b6115fd81611591565b82525050565b600060208201905061161860008301846115f4565b92915050565b60008115159050919050565b6116338161161e565b82525050565b600060208201905061164e600083018461162a565b92915050565b600081519050919050565b600082825260208201905092915050565b60005b8381101561168e578082015181840152602081019050611673565b60008484015250505050565b6000601f19601f8301169050919050565b60006116b682611654565b6116c0818561165f565b93506116d0818560208601611670565b6116d98161169a565b840191505092915050565b600060c0820190506116f960008301896115f4565b818103602083015261170b81886116ab565b9050818103604083015261171f81876116ab565b9050818103606083015261173381866116ab565b905061174260808301856115f4565b81810360a083015261175481846116ab565b9050979650505050505050565b600080fd5b600080fd5b7f4e487b7100000000000000000000000000000000000000000000000000000000600052604160045260246000fd5b6117a38261169a565b810181811067ffffffffffffffff821117156117c2576117c161176b565b5b80604052505050565b60006117d561157d565b90506117e1828261179a565b919050565b600067ffffffffffffffff8211156118015761180061176b565b5b61180a8261169a565b9050602081019050919050565b82818337600083830152505050565b6000611839611834846117e6565b6117cb565b90508281526020810184848401111561185557611854611766565b5b611860848285611817565b509392505050565b600082601f83011261187d5761187c611761565b5b813561188d848260208601611826565b91505092915050565b6000602082840312156118ac576118ab611587565b5b600082013567ffffffffffffffff8111156118ca576118c961158c565b5b6118d684828501611868565b91505092915050565b600081519050919050565b600082825260208201905092915050565b6000819050602082019050919050565b600073ffffffffffffffffffffffffffffffffffffffff82169050919050565b60006119368261190b565b9050919050565b6119468161192b565b82525050565b6000611958838361193d565b60208301905092915050565b6000602082019050919050565b600061197c826118df565b61198681856118ea565b9350611991836118fb565b8060005b838110156119c25781516119a9888261194c565b97506119b483611964565b925050600181019050611995565b5085935050505092915050565b600060208201905081810360008301526119e98184611971565b905092915050565b60008060408385031215611a0857611a07611587565b5b600083013567ffffffffffffffff811115611a2657611a2561158c565b5b611a3285828601611868565b9250506020611a43858286016115b2565b9150509250929050565b611a568161192b565b82525050565b6000602082019050611a716000830184611a4d565b92915050565b600080fd5b600080fd5b60008083601f840112611a9757611a96611761565b5b8235905067ffffffffffffffff811115611ab457611ab3611a77565b5b602083019150836001820283011115611ad057611acf611a7c565b5b9250929050565b6000806000806000806000806080898b031215611af757611af6611587565b5b600089013567ffffffffffffffff811115611b1557611b1461158c565b5b611b218b828c01611a81565b9850985050602089013567ffffffffffffffff811115611b4457611b4361158c565b5b611b508b828c01611a81565b9650965050604089013567ffffffffffffffff811115611b7357611b7261158c565b5b611b7f8b828c01611a81565b9450945050606089013567ffffffffffffffff811115611ba257611ba161158c565b5b611bae8b828c01611a81565b92509250509295985092959890939650565b600081519050919050565b600082825260208201905092915050565b6000819050602082019050919050565b611bf581611591565b82525050565b600082825260208201905092915050565b6000611c1782611654565b611c218185611bfb565b9350611c31818560208601611670565b611c3a8161169a565b840191505092915050565b600060c083016000830151611c5d6000860182611bec565b5060208301518482036020860152611c758282611c0c565b91505060408301518482036040860152611c8f8282611c0c565b91505060608301518482036060860152611ca98282611c0c565b9150506080830151611cbe6080860182611bec565b5060a083015184820360a0860152611cd68282611c0c565b9150508091505092915050565b6000611cef8383611c45565b905092915050565b6000602082019050919050565b6000611d0f82611bc0565b611d198185611bcb565b935083602082028501611d2b85611bdc565b8060005b85811015611d675784840389528151611d488582611ce3565b9450611d5383611cf7565b925060208a01995050600181019050611d2f565b50829750879550505050505092915050565b60006020820190508181036000830152611d938184611d04565b905092915050565b611da48161192b565b8114611daf57600080fd5b50565b600081359050611dc181611d9b565b92915050565b600060208284031215611ddd57611ddc611587565b5b6000611deb84828501611db2565b91505092915050565b7f43616e646964617465206973206e6f7420726567697374657265640000000000600082015250565b6000611e2a601b8361165f565b9150611e3582611df4565b602082019050919050565b60006020820190508181036000830152611e5981611e1d565b9050919050565b7f456c656374696f6e20686173206e6f7420737461727465640000000000000000600082015250565b6000611e9660188361165f565b9150611ea182611e60565b602082019050919050565b60006020820190508181036000830152611ec581611e89565b9050919050565b7f456c656374696f6e2074696d696e672068617320657870697265640000000000600082015250565b6000611f02601b8361165f565b9150611f0d82611ecc565b602082019050919050565b60006020820190508181036000830152611f3181611ef5565b9050919050565b7f4e487b7100000000000000000000000000000000000000000000000000000000600052602260045260246000fd5b60006002820490506001821680611f7f57607f821691505b602082108103611f9257611f91611f38565b5b50919050565b600081905092915050565b60008190508160005260206000209050919050565b60008154611fc581611f67565b611fcf8186611f98565b94506001821660008114611fea5760018114611fff57612032565b60ff1983168652811515820286019350612032565b61200885611fa3565b60005b8381101561202a5781548189015260018201915060208101905061200b565b838801955050505b50505092915050565b60006120478284611fb8565b915081905092915050565b7f796f75206861766520766f74656420666f72207468697320706f737420616c7260008201527f6561647900000000000000000000000000000000000000000000000000000000602082015250565b60006120ae60248361165f565b91506120b982612052565b604082019050919050565b600060208201905081810360008301526120dd816120a1565b9050919050565b7f4e487b7100000000000000000000000000000000000000000000000000000000600052601160045260246000fd5b600061211e82611591565b915061212983611591565b9250828201905080821115612141576121406120e4565b5b92915050565b6000815461215481611f67565b61215e818661165f565b94506001821660008114612179576001811461218f576121c2565b60ff1983168652811515602002860193506121c2565b61219885611fa3565b60005b838110156121ba5781548189015260018201915060208101905061219b565b808801955050505b50505092915050565b600060608201905081810360008301526121e58186612147565b905081810360208301526121f98185612147565b90506122086040830184611a4d565b949350505050565b600061221b82611654565b6122258185611f98565b9350612235818560208601611670565b80840191505092915050565b600061224d8284612210565b915081905092915050565b60006020601f8301049050919050565b600082821b905092915050565b6000600883026122a57fffffffffffffffffffffffffffffffffffffffffffffffffffffffffffffffff82612268565b6122af8683612268565b95508019841693508086168417925050509392505050565b6000819050919050565b60006122ec6122e76122e284611591565b6122c7565b611591565b9050919050565b6000819050919050565b612306836122d1565b61231a612312826122f3565b848454612275565b825550505050565b600090565b61232f612322565b61233a8184846122fd565b505050565b5b8181101561235e57612353600082612327565b600181019050612340565b5050565b601f8211156123a35761237481611fa3565b61237d84612258565b8101602085101561238c578190505b6123a061239885612258565b83018261233f565b50505b505050565b600082821c905092915050565b60006123c6600019846008026123a8565b1980831691505092915050565b60006123df83836123b5565b9150826002028217905092915050565b6123f882611654565b67ffffffffffffffff8111156124115761241061176b565b5b61241b8254611f67565b612426828285612362565b600060209050601f8311600181146124595760008415612447578287015190505b61245185826123d3565b8655506124b9565b601f19841661246786611fa3565b60005b8281101561248f5784890151825560018201915060208501945060208101905061246a565b868310156124ac57848901516124a8601f8916826123b5565b8355505b6001600288020188555050505b505050505050565b60006124cd838561165f565b93506124da838584611817565b6124e38361169a565b840190509392505050565b600060a082019050612503600083018c6115f4565b8181036020830152612516818a8c6124c1565b9050818103604083015261252b81888a6124c1565b905081810360608301526125408186886124c1565b905081810360808301526125558184866124c1565b90509a9950505050505050505050565b7f4475726174696f6e206d7573742062652067726561746572207468616e207a6560008201527f726f000000000000000000000000000000000000000000000000000000000000602082015250565b60006125c160228361165f565b91506125cc82612565565b604082019050919050565b600060208201905081810360008301526125f0816125b4565b9050919050565b600061260282611591565b915061260d83611591565b925082820261261b81611591565b91508282048414831517612632576126316120e4565b5b5092915050565b7f456c656374696f6e20686173206265656e20737461727465642062792074686560008201527f2061646d696e0000000000000000000000000000000000000000000000000000602082015250565b600061269560268361165f565b91506126a082612639565b604082019050919050565b60006080820190506126c060008301866115f4565b6126cd60208301856115f4565b6126da60408301846115f4565b81810360608301526126eb81612688565b9050949350505050565b7f4e487b7100000000000000000000000000000000000000000000000000000000600052603260045260246000fd5b600061272f82611591565b91507fffffffffffffffffffffffffffffffffffffffffffffffffffffffffffffffff8203612761576127606120e4565b5b600182019050919050565b7f4f776e61626c653a206e6577206f776e657220697320746865207a65726f206160008201527f6464726573730000000000000000000000000000000000000000000000000000602082015250565b60006127c860268361165f565b91506127d38261276c565b604082019050919050565b600060208201905081810360008301526127f7816127bb565b9050919050565b7f4f776e61626c653a2063616c6c6572206973206e6f7420746865206f776e6572600082015250565b600061283460208361165f565b915061283f826127fe565b602082019050919050565b6000602082019050818103600083015261286381612827565b905091905056fea26469706673582212208770f5f312a82e434837bfa24fdcd64a5b9192de91d329d648840677dda4750164736f6c63430008110033",
    "linkReferences": {},
    "deployedLinkReferences": {}
}